{
  "contractName": "SimpleStorage",
  "abi": [
    {
      "anonymous": false,
      "inputs": [
        {
          "indexed": false,
          "internalType": "address",
          "name": "adress",
          "type": "address"
        },
        {
          "indexed": false,
          "internalType": "bytes32",
          "name": "proof",
          "type": "bytes32"
        }
      ],
      "name": "LogProofs",
      "type": "event"
    },
    {
      "anonymous": false,
      "inputs": [
        {
          "indexed": true,
          "internalType": "address",
          "name": "previousOwner",
          "type": "address"
        },
        {
          "indexed": true,
          "internalType": "address",
          "name": "newOwner",
          "type": "address"
        }
      ],
      "name": "OwnershipTransferred",
      "type": "event"
    },
    {
      "constant": true,
      "inputs": [],
      "name": "isOwner",
      "outputs": [
        {
          "internalType": "bool",
          "name": "",
          "type": "bool"
        }
      ],
      "payable": false,
      "stateMutability": "view",
      "type": "function"
    },
    {
      "constant": true,
      "inputs": [],
      "name": "owner",
      "outputs": [
        {
          "internalType": "address",
          "name": "",
          "type": "address"
        }
      ],
      "payable": false,
      "stateMutability": "view",
      "type": "function"
    },
    {
      "constant": true,
      "inputs": [],
      "name": "proofCount",
      "outputs": [
        {
          "internalType": "uint256",
          "name": "",
          "type": "uint256"
        }
      ],
      "payable": false,
      "stateMutability": "view",
      "type": "function"
    },
    {
      "constant": true,
      "inputs": [
        {
          "internalType": "uint256",
          "name": "",
          "type": "uint256"
        }
      ],
      "name": "proofs",
      "outputs": [
        {
          "internalType": "bytes32",
          "name": "hash",
          "type": "bytes32"
        },
        {
          "internalType": "uint256",
          "name": "proofcount",
          "type": "uint256"
        },
        {
          "internalType": "bool",
          "name": "unique",
          "type": "bool"
        }
      ],
      "payable": false,
      "stateMutability": "view",
      "type": "function"
    },
    {
      "constant": false,
      "inputs": [],
      "name": "renounceOwnership",
      "outputs": [],
      "payable": false,
      "stateMutability": "nonpayable",
      "type": "function"
    },
    {
      "constant": false,
      "inputs": [
        {
          "internalType": "address",
          "name": "newOwner",
          "type": "address"
        }
      ],
      "name": "transferOwnership",
      "outputs": [],
      "payable": false,
      "stateMutability": "nonpayable",
      "type": "function"
    },
    {
      "constant": false,
      "inputs": [
        {
          "internalType": "string",
          "name": "ipfshash",
          "type": "string"
        }
      ],
      "name": "notarize",
      "outputs": [],
      "payable": false,
      "stateMutability": "nonpayable",
      "type": "function"
    },
    {
      "constant": true,
      "inputs": [
        {
          "internalType": "uint256",
          "name": "_proofcount",
          "type": "uint256"
        }
      ],
      "name": "getProof",
      "outputs": [
        {
          "internalType": "bytes32",
          "name": "",
          "type": "bytes32"
        }
      ],
      "payable": false,
      "stateMutability": "view",
      "type": "function"
    },
    {
      "constant": true,
      "inputs": [
        {
          "internalType": "uint256",
          "name": "_proofCount",
          "type": "uint256"
        }
      ],
      "name": "hasProof",
      "outputs": [
        {
          "internalType": "bool",
          "name": "",
          "type": "bool"
        }
      ],
      "payable": false,
      "stateMutability": "view",
      "type": "function"
    }
  ],
  "bytecode": "0x608060405260006001556100176100d760201b60201c565b6000806101000a81548173ffffffffffffffffffffffffffffffffffffffff021916908373ffffffffffffffffffffffffffffffffffffffff1602179055506000809054906101000a900473ffffffffffffffffffffffffffffffffffffffff1673ffffffffffffffffffffffffffffffffffffffff16600073ffffffffffffffffffffffffffffffffffffffff167f8be0079c531659141344cd1fd0a4f28419497f9722a3daafe3b4186f6b6457e060405160405180910390a36100df565b600033905090565b610a1e806100ee6000396000f3fe608060405234801561001057600080fd5b50600436106100935760003560e01c80638da5cb5b116100665780638da5cb5b146101e55780638f32d59b1461022f5780639ddaf5aa14610251578063addecc06146102a5578063f2fde38b146102c357610093565b806311149ada146100985780635c7782f4146100da578063715018a6146101205780637183616c1461012a575b600080fd5b6100c4600480360360208110156100ae57600080fd5b8101908080359060200190929190505050610307565b6040518082815260200191505060405180910390f35b610106600480360360208110156100f057600080fd5b81019080803590602001909291905050506103a1565b604051808215151515815260200191505060405180910390f35b6101286103ce565b005b6101e36004803603602081101561014057600080fd5b810190808035906020019064010000000081111561015d57600080fd5b82018360208201111561016f57600080fd5b8035906020019184600183028401116401000000008311171561019157600080fd5b91908080601f016020809104026020016040519081016040528093929190818152602001838380828437600081840152601f19601f820116905080830192505050505050509192919290505050610507565b005b6101ed61061c565b604051808273ffffffffffffffffffffffffffffffffffffffff1673ffffffffffffffffffffffffffffffffffffffff16815260200191505060405180910390f35b610237610645565b604051808215151515815260200191505060405180910390f35b61027d6004803603602081101561026757600080fd5b81019080803590602001909291905050506106a3565b6040518084815260200183815260200182151515158152602001935050505060405180910390f35b6102ad6106da565b6040518082815260200191505060405180910390f35b610305600480360360208110156102d957600080fd5b81019080803573ffffffffffffffffffffffffffffffffffffffff1690602001909291905050506106e0565b005b6000610311610645565b610383576040517f08c379a00000000000000000000000000000000000000000000000000000000081526004018080602001828103825260208152602001807f4f776e61626c653a2063616c6c6572206973206e6f7420746865206f776e657281525060200191505060405180910390fd5b60026000838152602001908152602001600020600001549050919050565b60006002600083815260200190815260200160002060020160009054906101000a900460ff169050919050565b6103d6610645565b610448576040517f08c379a00000000000000000000000000000000000000000000000000000000081526004018080602001828103825260208152602001807f4f776e61626c653a2063616c6c6572206973206e6f7420746865206f776e657281525060200191505060405180910390fd5b600073ffffffffffffffffffffffffffffffffffffffff166000809054906101000a900473ffffffffffffffffffffffffffffffffffffffff1673ffffffffffffffffffffffffffffffffffffffff167f8be0079c531659141344cd1fd0a4f28419497f9722a3daafe3b4186f6b6457e060405160405180910390a360008060006101000a81548173ffffffffffffffffffffffffffffffffffffffff021916908373ffffffffffffffffffffffffffffffffffffffff160217905550565b600061051282610766565b905060006001600081548092919060010191905055905060001515610536826103a1565b15151461054257600080fd5b604051806060016040528083815260200182815260200160011515815250600260006001548152602001908152602001600020600082015181600001556020820151816001015560408201518160020160006101000a81548160ff0219169083151502179055509050507f4adcc1b3465158954cf2f274f9f107cde1dc31e8079e1d568c3beb0c8f09af513383604051808373ffffffffffffffffffffffffffffffffffffffff1673ffffffffffffffffffffffffffffffffffffffff1681526020018281526020019250505060405180910390a1505050565b60008060009054906101000a900473ffffffffffffffffffffffffffffffffffffffff16905090565b60008060009054906101000a900473ffffffffffffffffffffffffffffffffffffffff1673ffffffffffffffffffffffffffffffffffffffff16610687610877565b73ffffffffffffffffffffffffffffffffffffffff1614905090565b60026020528060005260406000206000915090508060000154908060010154908060020160009054906101000a900460ff16905083565b60015481565b6106e8610645565b61075a576040517f08c379a00000000000000000000000000000000000000000000000000000000081526004018080602001828103825260208152602001807f4f776e61626c653a2063616c6c6572206973206e6f7420746865206f776e657281525060200191505060405180910390fd5b6107638161087f565b50565b60006002826040516020018082805190602001908083835b602083106107a1578051825260208201915060208101905060208303925061077e565b6001836020036101000a0380198251168184511680821785525050505050509050019150506040516020818303038152906040526040518082805190602001908083835b6020831061080857805182526020820191506020810190506020830392506107e5565b6001836020036101000a038019825116818451168082178552505050505050905001915050602060405180830381855afa15801561084a573d6000803e3d6000fd5b5050506040513d602081101561085f57600080fd5b81019080805190602001909291905050509050919050565b600033905090565b600073ffffffffffffffffffffffffffffffffffffffff168173ffffffffffffffffffffffffffffffffffffffff161415610905576040517f08c379a00000000000000000000000000000000000000000000000000000000081526004018080602001828103825260268152602001806109c46026913960400191505060405180910390fd5b8073ffffffffffffffffffffffffffffffffffffffff166000809054906101000a900473ffffffffffffffffffffffffffffffffffffffff1673ffffffffffffffffffffffffffffffffffffffff167f8be0079c531659141344cd1fd0a4f28419497f9722a3daafe3b4186f6b6457e060405160405180910390a3806000806101000a81548173ffffffffffffffffffffffffffffffffffffffff021916908373ffffffffffffffffffffffffffffffffffffffff1602179055505056fe4f776e61626c653a206e6577206f776e657220697320746865207a65726f2061646472657373a265627a7a72315820a90804e43b6cc1abe1827b91503be3af45f01bd04c233765cf1ee9df96f011fe64736f6c63430005100032",
  "source": "pragma solidity ^0.5.0;\n\nimport \"@openzeppelin/contracts/ownership/Ownable.sol\";\n\n\ncontract SimpleStorage is Ownable{\n\n//bytes32 public proof;\n\nuint public proofCount = 0;\n\n /** @notice Logs when a proof is created\n      */\nevent LogProofs(address adress, bytes32 proof);\n /** @dev Maps id to the proof given from hash function \n      */\nmapping(uint => proof) public proofs;\n\n//mapping (bytes32 => bool) private proofs;\n\nstruct proof {\n    bytes32 hash;\n    uint proofcount;\n    bool unique;\n    // bool purchased;\n    // address payable buyer;\n    // address payable seller;\n  \n }\n\n /** @notice stores a reference in proofs mapping of ipfshash\n      * @dev emits a log with info of the sender and the hash\n      * @param ipfshash is the hash that is created from ipfs\n      */\n    function notarize(string memory ipfshash ) public {\n        \n        bytes32 proofhash = hash(ipfshash);\n        uint id = proofCount++;\n        require(hasProof(id) == false);\n        proofs[proofCount] = proof({hash: proofhash, proofcount:id, unique: true });\n        emit LogProofs(msg.sender, proofhash);\n        \n    }\n    /** @notice helper function that hashes an input\n      * @param ipfshash is the hash that is created from ipfs\n      */\n    function hash(string memory ipfshash) internal view returns (bytes32){\n      return sha256(abi.encodePacked(ipfshash));\n    }\n    /** @notice gets proof from blockchain\n      * @param _proofcount is the id of the proof you want to retrieve\n      * @return return the proof from mapping\n      */\n    function getProof(uint _proofcount)  public view onlyOwner returns(bytes32)  {\n      return proofs[_proofcount].hash;\n      \n    }\n\n    function hasProof(uint _proofCount) public view returns(bool) {\n    return proofs[_proofCount].unique;\n  }\n}\n\n\n\n",
  "sourcePath": "/Users/leefaria/Documents/PrimisFinalProject/contracts/SimpleStorage.sol",
  "compiler": {
    "name": "solc",
    "version": "0.5.16+commit.9c3226ce.Emscripten.clang"
  },
  "schemaVersion": "3.0.22",
  "updatedAt": "2020-01-27T21:26:51.041Z",
  "networkType": "ethereum",
  "devdoc": {
    "methods": {
      "getProof(uint256)": {
        "params": {
          "_proofcount": "is the id of the proof you want to retrieve"
        },
        "return": "return the proof from mapping"
      },
      "isOwner()": {
        "details": "Returns true if the caller is the current owner."
      },
      "notarize(string)": {
        "details": "emits a log with info of the sender and the hash",
        "params": {
          "ipfshash": "is the hash that is created from ipfs"
        }
      },
      "owner()": {
        "details": "Returns the address of the current owner."
      },
      "renounceOwnership()": {
        "details": "Leaves the contract without owner. It will not be possible to call `onlyOwner` functions anymore. Can only be called by the current owner.     * NOTE: Renouncing ownership will leave the contract without an owner, thereby removing any functionality that is only available to the owner."
      },
      "transferOwnership(address)": {
        "details": "Transfers ownership of the contract to a new account (`newOwner`). Can only be called by the current owner."
      }
    }
  },
  "userdoc": {
    "methods": {
      "getProof(uint256)": {
        "notice": "gets proof from blockchain"
      },
      "notarize(string)": {
        "notice": "stores a reference in proofs mapping of ipfshash"
      }
    }
  }
}