{
  "contractName": "SimpleStorage",
  "abi": [
    {
      "anonymous": false,
      "inputs": [
        {
          "indexed": false,
          "internalType": "address",
          "name": "adress",
          "type": "address"
        },
        {
          "indexed": false,
          "internalType": "bytes32",
          "name": "proof",
          "type": "bytes32"
        }
      ],
      "name": "LogProofs",
      "type": "event"
    },
    {
      "constant": true,
      "inputs": [],
      "name": "proofCount",
      "outputs": [
        {
          "internalType": "uint256",
          "name": "",
          "type": "uint256"
        }
      ],
      "payable": false,
      "stateMutability": "view",
      "type": "function"
    },
    {
      "constant": true,
      "inputs": [
        {
          "internalType": "uint256",
          "name": "",
          "type": "uint256"
        }
      ],
      "name": "proofs",
      "outputs": [
        {
          "internalType": "bytes32",
          "name": "hash",
          "type": "bytes32"
        },
        {
          "internalType": "uint256",
          "name": "proofcount",
          "type": "uint256"
        },
        {
          "internalType": "bool",
          "name": "unique",
          "type": "bool"
        }
      ],
      "payable": false,
      "stateMutability": "view",
      "type": "function"
    },
    {
      "constant": false,
      "inputs": [
        {
          "internalType": "string",
          "name": "ipfshash",
          "type": "string"
        }
      ],
      "name": "notarize",
      "outputs": [],
      "payable": false,
      "stateMutability": "nonpayable",
      "type": "function"
    },
    {
      "constant": true,
      "inputs": [
        {
          "internalType": "uint256",
          "name": "_proofcount",
          "type": "uint256"
        }
      ],
      "name": "getProof",
      "outputs": [
        {
          "internalType": "bytes32",
          "name": "",
          "type": "bytes32"
        }
      ],
      "payable": false,
      "stateMutability": "view",
      "type": "function"
    }
  ],
  "bytecode": "0x60806040526000805534801561001457600080fd5b5061045d806100246000396000f3fe608060405234801561001057600080fd5b506004361061004c5760003560e01c806311149ada146100515780637183616c146100935780639ddaf5aa1461014e578063addecc06146101a2575b600080fd5b61007d6004803603602081101561006757600080fd5b81019080803590602001909291905050506101c0565b6040518082815260200191505060405180910390f35b61014c600480360360208110156100a957600080fd5b81019080803590602001906401000000008111156100c657600080fd5b8201836020820111156100d857600080fd5b803590602001918460018302840111640100000000831117156100fa57600080fd5b91908080601f016020809104026020016040519081016040528093929190818152602001838380828437600081840152601f19601f8201169050808301925050505050505091929192905050506101e0565b005b61017a6004803603602081101561016457600080fd5b81019080803590602001909291905050506102da565b6040518084815260200183815260200182151515158152602001935050505060405180910390f35b6101aa610311565b6040518082815260200191505060405180910390f35b600060016000838152602001908152602001600020600001549050919050565b60006101eb82610317565b905060008060008154809291906001019190505590506040518060600160405280838152602001828152602001600115158152506001600080548152602001908152602001600020600082015181600001556020820151816001015560408201518160020160006101000a81548160ff0219169083151502179055509050507f4adcc1b3465158954cf2f274f9f107cde1dc31e8079e1d568c3beb0c8f09af513383604051808373ffffffffffffffffffffffffffffffffffffffff1673ffffffffffffffffffffffffffffffffffffffff1681526020018281526020019250505060405180910390a1505050565b60016020528060005260406000206000915090508060000154908060010154908060020160009054906101000a900460ff16905083565b60005481565b60006002826040516020018082805190602001908083835b60208310610352578051825260208201915060208101905060208303925061032f565b6001836020036101000a0380198251168184511680821785525050505050509050019150506040516020818303038152906040526040518082805190602001908083835b602083106103b95780518252602082019150602081019050602083039250610396565b6001836020036101000a038019825116818451168082178552505050505050905001915050602060405180830381855afa1580156103fb573d6000803e3d6000fd5b5050506040513d602081101561041057600080fd5b8101908080519060200190929190505050905091905056fea265627a7a72315820f500684e548241e489a80c33abcf6889e11b56a5ee3bdbc2f1175d46521cf5b164736f6c63430005100032",
  "source": "pragma solidity ^0.5.0;\n\n\n\n\ncontract SimpleStorage{\n\n//bytes32 public proof;\n\nuint public proofCount = 0;\n\n /** @notice Logs when a proof is created\n      */\nevent LogProofs(address adress, bytes32 proof);\n /** @dev Maps id to the proof given from hash function \n      */\nmapping(uint => proof) public proofs;\n\n//mapping (bytes32 => bool) private proofs;\n\nstruct proof {\n    bytes32 hash;\n    uint proofcount;\n    bool unique;\n    // bool purchased;\n    // address payable buyer;\n    // address payable seller;\n  \n }\n\n /** @notice stores a reference in proofs mapping of ipfshash\n      * @dev emits a log with info of the sender and the hash\n      * @param ipfshash is the hash that is created from ipfs\n      */\n    function notarize(string memory ipfshash ) public {\n        \n        bytes32 proofhash = hash(ipfshash);\n        uint id = proofCount++;\n        //require(hasProof(id) == false);\n        proofs[proofCount] = proof({hash: proofhash, proofcount:id, unique: true });\n        emit LogProofs(msg.sender, proofhash);\n        \n    }\n    /** @notice helper function that hashes an input\n      * @param ipfshash is the hash that is created from ipfs\n      */\n    function hash(string memory ipfshash) internal view returns (bytes32){\n      return sha256(abi.encodePacked(ipfshash));\n    }\n    /** @notice gets proof from blockchain\n      * @param _proofcount is the id of the proof you want to retrieve\n      * @return return the proof from mapping\n      */\n    function getProof(uint _proofcount)  public view returns(bytes32)  {\n      return proofs[_proofcount].hash;\n      \n    }\n\n  //   function hasProof(uint _proofCount) public view returns(bool) {\n  //   return proofs[_proofCount].unique;\n  // }\n}\n\n\n\n",
  "sourcePath": "/Users/leefaria/Documents/Code/testitout/PrimisFinalProject/contracts/SimpleStorage.sol",
  "compiler": {
    "name": "solc",
    "version": "0.5.16+commit.9c3226ce.Emscripten.clang"
  },
  "schemaVersion": "3.0.22",
  "updatedAt": "2020-02-01T03:31:45.999Z",
  "networkType": "ethereum",
  "devdoc": {
    "methods": {
      "getProof(uint256)": {
        "params": {
          "_proofcount": "is the id of the proof you want to retrieve"
        },
        "return": "return the proof from mapping"
      },
      "notarize(string)": {
        "details": "emits a log with info of the sender and the hash",
        "params": {
          "ipfshash": "is the hash that is created from ipfs"
        }
      }
    }
  },
  "userdoc": {
    "methods": {
      "getProof(uint256)": {
        "notice": "gets proof from blockchain"
      },
      "notarize(string)": {
        "notice": "stores a reference in proofs mapping of ipfshash"
      }
    }
  }
}