{
  "contractName": "SimpleStorage",
  "abi": [
    {
      "anonymous": false,
      "inputs": [
        {
          "indexed": false,
          "internalType": "address",
          "name": "adress",
          "type": "address"
        },
        {
          "indexed": false,
          "internalType": "bytes32",
          "name": "proof",
          "type": "bytes32"
        }
      ],
      "name": "LogProofs",
      "type": "event"
    },
    {
      "constant": true,
      "inputs": [],
      "name": "proofCount",
      "outputs": [
        {
          "internalType": "uint256",
          "name": "",
          "type": "uint256"
        }
      ],
      "payable": false,
      "stateMutability": "view",
      "type": "function"
    },
    {
      "constant": true,
      "inputs": [
        {
          "internalType": "uint256",
          "name": "",
          "type": "uint256"
        }
      ],
      "name": "proofs",
      "outputs": [
        {
          "internalType": "bytes32",
          "name": "hash",
          "type": "bytes32"
        },
        {
          "internalType": "uint256",
          "name": "proofcount",
          "type": "uint256"
        }
      ],
      "payable": false,
      "stateMutability": "view",
      "type": "function"
    },
    {
      "constant": false,
      "inputs": [
        {
          "internalType": "string",
          "name": "ipfshash",
          "type": "string"
        }
      ],
      "name": "notarize",
      "outputs": [],
      "payable": false,
      "stateMutability": "nonpayable",
      "type": "function"
    },
    {
      "constant": true,
      "inputs": [
        {
          "internalType": "uint256",
          "name": "_proofcount",
          "type": "uint256"
        }
      ],
      "name": "getProof",
      "outputs": [
        {
          "internalType": "bytes32",
          "name": "",
          "type": "bytes32"
        }
      ],
      "payable": false,
      "stateMutability": "view",
      "type": "function"
    }
  ],
  "bytecode": "0x6080604052600060015534801561001557600080fd5b50610418806100256000396000f3fe608060405234801561001057600080fd5b506004361061004c5760003560e01c806311149ada146100515780637183616c146100935780639ddaf5aa1461014e578063addecc0614610197575b600080fd5b61007d6004803603602081101561006757600080fd5b81019080803590602001909291905050506101b5565b6040518082815260200191505060405180910390f35b61014c600480360360208110156100a957600080fd5b81019080803590602001906401000000008111156100c657600080fd5b8201836020820111156100d857600080fd5b803590602001918460018302840111640100000000831117156100fa57600080fd5b91908080601f016020809104026020016040519081016040528093929190818152602001838380828437600081840152601f19601f8201169050808301925050505050505091929192905050506101d5565b005b61017a6004803603602081101561016457600080fd5b81019080803590602001909291905050506102a8565b604051808381526020018281526020019250505060405180910390f35b61019f6102cc565b6040518082815260200191505060405180910390f35b600060026000838152602001908152602001600020600001549050919050565b60006101e0826102d2565b905060006001600081548092919060010191905055905060405180604001604052808381526020018281525060026000600154815260200190815260200160002060008201518160000155602082015181600101559050507f4adcc1b3465158954cf2f274f9f107cde1dc31e8079e1d568c3beb0c8f09af513383604051808373ffffffffffffffffffffffffffffffffffffffff1673ffffffffffffffffffffffffffffffffffffffff1681526020018281526020019250505060405180910390a1505050565b60026020528060005260406000206000915090508060000154908060010154905082565b60015481565b60006002826040516020018082805190602001908083835b6020831061030d57805182526020820191506020810190506020830392506102ea565b6001836020036101000a0380198251168184511680821785525050505050509050019150506040516020818303038152906040526040518082805190602001908083835b602083106103745780518252602082019150602081019050602083039250610351565b6001836020036101000a038019825116818451168082178552505050505050905001915050602060405180830381855afa1580156103b6573d6000803e3d6000fd5b5050506040513d60208110156103cb57600080fd5b8101908080519060200190929190505050905091905056fea265627a7a72315820a33c97a76a1cd5a5826136e66969d49d3e9289a3979a569e1829bb9a335c9bce64736f6c634300050c0032",
  "source": "pragma solidity ^0.5.0;\n\ncontract SimpleStorage {\n  uint storedData;\n\n//bytes32 public proof;\n\nuint public proofCount = 0;\n\nevent LogProofs(address adress, bytes32 proof);\n\nmapping(uint => proof) public proofs;\n\nstruct proof {\n    bytes32 hash;\n    uint proofcount;\n    // uint price;\n    // bool purchased;\n    // address payable buyer;\n    // address payable seller;\n  \n }\n\n // store a proof of existence in the contract state\n    function notarize(string memory ipfshash ) public {\n        bytes32 proofhash = hash(ipfshash);\n        uint id = proofCount++;\n        proofs[proofCount] = proof({hash: proofhash, proofcount:id });\n        emit LogProofs(msg.sender, proofhash);\n        \n    }\n    function hash(string memory ipfshash) internal view returns (bytes32){\n      return sha256(abi.encodePacked(ipfshash));\n    }\n\n    function getProof(uint _proofcount)  public view returns(bytes32){\n      return proofs[_proofcount].hash;\n      \n    }\n}\n\n",
  "sourcePath": "/Users/leefaria/Documents/Code/finalproject/ipfsdemo/contracts/SimpleStorage.sol",
  "compiler": {
    "name": "solc",
    "version": "0.5.12+commit.7709ece9.Emscripten.clang"
  },
  "schemaVersion": "3.0.18",
  "updatedAt": "2020-01-19T05:32:06.666Z",
  "networkType": "ethereum",
  "devdoc": {
    "methods": {}
  },
  "userdoc": {
    "methods": {}
  }
}