{
  "contractName": "SimpleStorage",
  "abi": [
    {
      "anonymous": false,
      "inputs": [
        {
          "indexed": false,
          "internalType": "address",
          "name": "adress",
          "type": "address"
        },
        {
          "indexed": false,
          "internalType": "bytes32",
          "name": "proof",
          "type": "bytes32"
        }
      ],
      "name": "LogProofs",
      "type": "event"
    },
    {
      "anonymous": false,
      "inputs": [
        {
          "indexed": true,
          "internalType": "address",
          "name": "previousOwner",
          "type": "address"
        },
        {
          "indexed": true,
          "internalType": "address",
          "name": "newOwner",
          "type": "address"
        }
      ],
      "name": "OwnershipTransferred",
      "type": "event"
    },
    {
      "constant": true,
      "inputs": [],
      "name": "isOwner",
      "outputs": [
        {
          "internalType": "bool",
          "name": "",
          "type": "bool"
        }
      ],
      "payable": false,
      "stateMutability": "view",
      "type": "function"
    },
    {
      "constant": true,
      "inputs": [],
      "name": "owner",
      "outputs": [
        {
          "internalType": "address",
          "name": "",
          "type": "address"
        }
      ],
      "payable": false,
      "stateMutability": "view",
      "type": "function"
    },
    {
      "constant": true,
      "inputs": [],
      "name": "proofCount",
      "outputs": [
        {
          "internalType": "uint256",
          "name": "",
          "type": "uint256"
        }
      ],
      "payable": false,
      "stateMutability": "view",
      "type": "function"
    },
    {
      "constant": true,
      "inputs": [
        {
          "internalType": "uint256",
          "name": "",
          "type": "uint256"
        }
      ],
      "name": "proofs",
      "outputs": [
        {
          "internalType": "bytes32",
          "name": "hash",
          "type": "bytes32"
        },
        {
          "internalType": "uint256",
          "name": "proofcount",
          "type": "uint256"
        }
      ],
      "payable": false,
      "stateMutability": "view",
      "type": "function"
    },
    {
      "constant": false,
      "inputs": [],
      "name": "renounceOwnership",
      "outputs": [],
      "payable": false,
      "stateMutability": "nonpayable",
      "type": "function"
    },
    {
      "constant": false,
      "inputs": [
        {
          "internalType": "address",
          "name": "newOwner",
          "type": "address"
        }
      ],
      "name": "transferOwnership",
      "outputs": [],
      "payable": false,
      "stateMutability": "nonpayable",
      "type": "function"
    },
    {
      "constant": false,
      "inputs": [
        {
          "internalType": "string",
          "name": "ipfshash",
          "type": "string"
        }
      ],
      "name": "notarize",
      "outputs": [],
      "payable": false,
      "stateMutability": "nonpayable",
      "type": "function"
    },
    {
      "constant": true,
      "inputs": [
        {
          "internalType": "uint256",
          "name": "_proofcount",
          "type": "uint256"
        }
      ],
      "name": "getProof",
      "outputs": [
        {
          "internalType": "bytes32",
          "name": "",
          "type": "bytes32"
        }
      ],
      "payable": false,
      "stateMutability": "view",
      "type": "function"
    }
  ],
  "bytecode": "0x60806040526000600155336000806101000a81548173ffffffffffffffffffffffffffffffffffffffff021916908373ffffffffffffffffffffffffffffffffffffffff1602179055506000809054906101000a900473ffffffffffffffffffffffffffffffffffffffff1673ffffffffffffffffffffffffffffffffffffffff16600073ffffffffffffffffffffffffffffffffffffffff167f8be0079c531659141344cd1fd0a4f28419497f9722a3daafe3b4186f6b6457e060405160405180910390a3610956806100d46000396000f3fe608060405234801561001057600080fd5b50600436106100885760003560e01c80638f32d59b1161005b5780638f32d59b146101de5780639ddaf5aa14610200578063addecc0614610249578063f2fde38b1461026757610088565b806311149ada1461008d578063715018a6146100cf5780637183616c146100d95780638da5cb5b14610194575b600080fd5b6100b9600480360360208110156100a357600080fd5b81019080803590602001909291905050506102ab565b6040518082815260200191505060405180910390f35b6100d7610345565b005b610192600480360360208110156100ef57600080fd5b810190808035906020019064010000000081111561010c57600080fd5b82018360208201111561011e57600080fd5b8035906020019184600183028401116401000000008311171561014057600080fd5b91908080601f016020809104026020016040519081016040528093929190818152602001838380828437600081840152601f19601f82011690508083019250505050505050919291929050505061047e565b005b61019c610576565b604051808273ffffffffffffffffffffffffffffffffffffffff1673ffffffffffffffffffffffffffffffffffffffff16815260200191505060405180910390f35b6101e661059f565b604051808215151515815260200191505060405180910390f35b61022c6004803603602081101561021657600080fd5b81019080803590602001909291905050506105f6565b604051808381526020018281526020019250505060405180910390f35b61025161061a565b6040518082815260200191505060405180910390f35b6102a96004803603602081101561027d57600080fd5b81019080803573ffffffffffffffffffffffffffffffffffffffff169060200190929190505050610620565b005b60006102b561059f565b610327576040517f08c379a00000000000000000000000000000000000000000000000000000000081526004018080602001828103825260208152602001807f4f776e61626c653a2063616c6c6572206973206e6f7420746865206f776e657281525060200191505060405180910390fd5b60026000838152602001908152602001600020600001549050919050565b61034d61059f565b6103bf576040517f08c379a00000000000000000000000000000000000000000000000000000000081526004018080602001828103825260208152602001807f4f776e61626c653a2063616c6c6572206973206e6f7420746865206f776e657281525060200191505060405180910390fd5b600073ffffffffffffffffffffffffffffffffffffffff166000809054906101000a900473ffffffffffffffffffffffffffffffffffffffff1673ffffffffffffffffffffffffffffffffffffffff167f8be0079c531659141344cd1fd0a4f28419497f9722a3daafe3b4186f6b6457e060405160405180910390a360008060006101000a81548173ffffffffffffffffffffffffffffffffffffffff021916908373ffffffffffffffffffffffffffffffffffffffff160217905550565b6000610489826106a6565b9050600060016000815480929190600101919050559050816002600060015481526020019081526020016000206000015414156104c557600080fd5b60405180604001604052808381526020018281525060026000600154815260200190815260200160002060008201518160000155602082015181600101559050507f4adcc1b3465158954cf2f274f9f107cde1dc31e8079e1d568c3beb0c8f09af513383604051808373ffffffffffffffffffffffffffffffffffffffff1673ffffffffffffffffffffffffffffffffffffffff1681526020018281526020019250505060405180910390a1505050565b60008060009054906101000a900473ffffffffffffffffffffffffffffffffffffffff16905090565b60008060009054906101000a900473ffffffffffffffffffffffffffffffffffffffff1673ffffffffffffffffffffffffffffffffffffffff163373ffffffffffffffffffffffffffffffffffffffff1614905090565b60026020528060005260406000206000915090508060000154908060010154905082565b60015481565b61062861059f565b61069a576040517f08c379a00000000000000000000000000000000000000000000000000000000081526004018080602001828103825260208152602001807f4f776e61626c653a2063616c6c6572206973206e6f7420746865206f776e657281525060200191505060405180910390fd5b6106a3816107b7565b50565b60006002826040516020018082805190602001908083835b602083106106e157805182526020820191506020810190506020830392506106be565b6001836020036101000a0380198251168184511680821785525050505050509050019150506040516020818303038152906040526040518082805190602001908083835b602083106107485780518252602082019150602081019050602083039250610725565b6001836020036101000a038019825116818451168082178552505050505050905001915050602060405180830381855afa15801561078a573d6000803e3d6000fd5b5050506040513d602081101561079f57600080fd5b81019080805190602001909291905050509050919050565b600073ffffffffffffffffffffffffffffffffffffffff168173ffffffffffffffffffffffffffffffffffffffff16141561083d576040517f08c379a00000000000000000000000000000000000000000000000000000000081526004018080602001828103825260268152602001806108fc6026913960400191505060405180910390fd5b8073ffffffffffffffffffffffffffffffffffffffff166000809054906101000a900473ffffffffffffffffffffffffffffffffffffffff1673ffffffffffffffffffffffffffffffffffffffff167f8be0079c531659141344cd1fd0a4f28419497f9722a3daafe3b4186f6b6457e060405160405180910390a3806000806101000a81548173ffffffffffffffffffffffffffffffffffffffff021916908373ffffffffffffffffffffffffffffffffffffffff1602179055505056fe4f776e61626c653a206e6577206f776e657220697320746865207a65726f2061646472657373a265627a7a72315820f8e9d834c1a57877bf43c016d19b35c7f8139f21362ce80ab823546ab410a5ee64736f6c634300050c0032",
  "source": "pragma solidity ^0.5.0;\n\nimport \"@openzeppelin/contracts/ownership/Ownable.sol\";\n\n\ncontract SimpleStorage is Ownable{\n\n//bytes32 public proof;\n\nuint public proofCount = 0;\n\n /** @notice Logs when a proof is created\n      */\nevent LogProofs(address adress, bytes32 proof);\n /** @dev Maps id to the proof given from hash function \n      */\nmapping(uint => proof) public proofs;\n\nstruct proof {\n    bytes32 hash;\n    uint proofcount;\n    // uint price;\n    // bool purchased;\n    // address payable buyer;\n    // address payable seller;\n  \n }\n\n /** @notice stores a reference in proofs mapping of ipfshash\n      * @dev emits a log with info of the sender and the hash\n      * @param ipfshash is the hash that is created from ipfs\n      */\n    function notarize(string memory ipfshash ) public {\n        \n        bytes32 proofhash = hash(ipfshash);\n        uint id = proofCount++;\n        require(proofs[proofCount].hash != proofhash);\n        proofs[proofCount] = proof({hash: proofhash, proofcount:id });\n        emit LogProofs(msg.sender, proofhash);\n        \n    }\n    /** @notice helper function that hashes an input\n      * @param ipfshash is the hash that is created from ipfs\n      */\n    function hash(string memory ipfshash) internal view returns (bytes32){\n      return sha256(abi.encodePacked(ipfshash));\n    }\n    /** @notice gets proof from blockchain\n      * @param _proofcount is the id of the proof you want to retrieve\n      * @return return the proof from mapping\n      */\n    function getProof(uint _proofcount)  public view onlyOwner returns(bytes32)  {\n      return proofs[_proofcount].hash;\n      \n    }\n}\n\n",
  "sourcePath": "/Users/leefaria/Documents/Code/finalproject/ipfsdemo/contracts/SimpleStorage.sol",
  "compiler": {
    "name": "solc",
    "version": "0.5.12+commit.7709ece9.Emscripten.clang"
  },
  "schemaVersion": "3.0.18",
  "updatedAt": "2020-01-24T02:45:22.233Z",
  "devdoc": {
    "methods": {
      "getProof(uint256)": {
        "params": {
          "_proofcount": "is the id of the proof you want to retrieve"
        },
        "return": "return the proof from mapping"
      },
      "isOwner()": {
        "details": "Returns true if the caller is the current owner."
      },
      "notarize(string)": {
        "details": "emits a log with info of the sender and the hash",
        "params": {
          "ipfshash": "is the hash that is created from ipfs"
        }
      },
      "owner()": {
        "details": "Returns the address of the current owner."
      },
      "renounceOwnership()": {
        "details": "Leaves the contract without owner. It will not be possible to call `onlyOwner` functions anymore. Can only be called by the current owner.     * > Note: Renouncing ownership will leave the contract without an owner, thereby removing any functionality that is only available to the owner."
      },
      "transferOwnership(address)": {
        "details": "Transfers ownership of the contract to a new account (`newOwner`). Can only be called by the current owner."
      }
    }
  },
  "userdoc": {
    "methods": {
      "getProof(uint256)": {
        "notice": "gets proof from blockchain"
      },
      "notarize(string)": {
        "notice": "stores a reference in proofs mapping of ipfshash"
      }
    }
  }
}