{
  "contractName": "SimpleStorage",
  "abi": [
    {
      "constant": true,
      "inputs": [],
      "name": "proof",
      "outputs": [
        {
          "internalType": "bytes32",
          "name": "",
          "type": "bytes32"
        }
      ],
      "payable": false,
      "stateMutability": "view",
      "type": "function"
    },
    {
      "constant": false,
      "inputs": [
        {
          "internalType": "string",
          "name": "ipfshash",
          "type": "string"
        }
      ],
      "name": "notarize",
      "outputs": [],
      "payable": false,
      "stateMutability": "nonpayable",
      "type": "function"
    }
  ],
  "bytecode": "0x608060405234801561001057600080fd5b50610272806100206000396000f3fe608060405234801561001057600080fd5b50600436106100365760003560e01c80637183616c1461003b578063faf924cf146100f6575b600080fd5b6100f46004803603602081101561005157600080fd5b810190808035906020019064010000000081111561006e57600080fd5b82018360208201111561008057600080fd5b803590602001918460018302840111640100000000831117156100a257600080fd5b91908080601f016020809104026020016040519081016040528093929190818152602001838380828437600081840152601f19601f820116905080830192505050505050509192919290505050610114565b005b6100fe610126565b6040518082815260200191505060405180910390f35b61011d8161012c565b60018190555050565b60015481565b60006002826040516020018082805190602001908083835b602083106101675780518252602082019150602081019050602083039250610144565b6001836020036101000a0380198251168184511680821785525050505050509050019150506040516020818303038152906040526040518082805190602001908083835b602083106101ce57805182526020820191506020810190506020830392506101ab565b6001836020036101000a038019825116818451168082178552505050505050905001915050602060405180830381855afa158015610210573d6000803e3d6000fd5b5050506040513d602081101561022557600080fd5b8101908080519060200190929190505050905091905056fea265627a7a72315820ae1875d52401ab45296c9303f38bfd1a5add388e9264b54dc7f68e51324a9f5764736f6c634300050c0032",
  "source": "pragma solidity ^0.5.0;\n\ncontract SimpleStorage {\n  uint storedData;\n\nbytes32 public proof;\n  \n  \n // store a proof of existence in the contract state\n    function notarize(string memory ipfshash ) public {\n        proof = hash(ipfshash);\n    }\n    function hash(string memory ipfshash) internal pure returns (bytes32){\n      return sha256(abi.encodePacked(ipfshash));\n    }\n}\n\n// // Proof of Existence contract, version 2\n// pragma solidity ^0.5.0;\n//   // state\n//   contract proofOfExistence{\n      \n\n//    bytes32 public proof;\n  \n  \n//  // store a proof of existence in the contract state\n//     function notarize(string memory ipfshash ) public {\n//         proof = hash(ipfshash);\n//     }\n//     function hash(string memory ipfshash) internal pure returns (bytes32){\n//       return sha256(abi.encodePacked(ipfshash));\n//     }\n//   // *transactional function*\n//   }\n",
  "sourcePath": "/Users/leefaria/Documents/Code/finalproject/ipfsdemo/contracts/SimpleStorage.sol",
  "compiler": {
    "name": "solc",
    "version": "0.5.12+commit.7709ece9.Emscripten.clang"
  },
  "schemaVersion": "3.0.18",
  "updatedAt": "2020-01-04T04:38:02.567Z",
  "networkType": "ethereum",
  "devdoc": {
    "methods": {}
  },
  "userdoc": {
    "methods": {}
  }
}